:100000000C945D000C9485000C9485000C94850084
:100010000C9485000C9485000C9485000C9485004C
:100020000C9485000C9485000C9485000C9485003C
:100030000C9485000C9485000C9485000C9485002C
:100040000C94AB020C9485000C9479020C9453022E
:100050000C9485000C9485000C9485000C9485000C
:100060000C9485000C9485000000000024002700FB
:100070002A0000000000250028002B0004040404CE
:100080000404040402020202020203030303030342
:10009000010204081020408001020408102001021F
:1000A00004081020000000080002010000030407FB
:1000B0000000000000000000300411241FBECFEF3C
:1000C000D8E0DEBFCDBF11E0A0E0B1E0EEE0F9E0A6
:1000D00002C005900D92A631B107D9F721E0A6E143
:1000E000B1E001C01D92A43CB207E1F710E0CDE5FC
:1000F000D0E004C02197FE010E947F04CC35D107D7
:10010000C9F70E94F5020C9485040C940000E1EB01
:10011000F0E02491EDE9F0E09491E9E8F0E0E49179
:10012000EE23C9F0222339F0233001F1A8F4213065
:1001300019F1223029F1F0E0EE0FFF1FEE58FF4FCA
:10014000A591B4912FB7F894EC91811126C09095A8
:100150009E239C932FBF08952730A9F02830C9F023
:10016000243049F7209180002F7D03C0209180002A
:100170002F7720938000DFCF24B52F7724BDDBCFEE
:1001800024B52F7DFBCF2091B0002F772093B000B6
:10019000D2CF2091B0002F7DF9CF9E2BDACFAF9236
:1001A000BF92CF92DF92EF92FF920F931F93CF9364
:1001B000DF936C017B018B01040F151FEB015E01C6
:1001C000AE18BF08C017D10759F06991D601ED915B
:1001D000FC910190F081E02DC6010995892B79F7FA
:1001E000C501DF91CF911F910F91FF90EF90DF90AC
:1001F000CF90BF90AF900895FC01538D448D252F73
:1002000030E0842F90E0821B930B541710F0CF96B0
:10021000089501970895FC01918D828D981761F0E2
:10022000A28DAE0FBF2FB11D5D968C91928D9F5FF9
:100230009F73928F90E008958FEF9FEF0895FC01D8
:10024000918D828D981731F0828DE80FF11D858D8B
:1002500090E008958FEF9FEF0895FC01918D228D1E
:10026000892F90E0805C9F4F821B91098F739927A3
:10027000089587E291E00E942D0121E0892B09F485
:1002800020E0822F089580E090E0892B29F00E94E1
:10029000390181110C9400000895FC01A48DA80F70
:1002A000B92FB11DA35ABF4F2C91848D90E00196B8
:1002B0008F739927848FA689B7892C93A089B189D8
:1002C0008C91837080648C93938D848D981306C079
:1002D0000288F389E02D80818F7D80830895EF92DD
:1002E000FF920F931F93CF93DF93EC0181E0888FF0
:1002F0009B8D8C8D98131AC0E889F989808185FFC0
:1003000015C09FB7F894EE89FF896083E889F98961
:1003100080818370806480839FBF81E090E0DF9163
:10032000CF911F910F91FF90EF900895F62E0B8DB6
:1003300010E00F5F1F4F0F731127E02E8C8D8E1171
:100340000CC00FB607FCFACFE889F989808185FFD8
:10035000F5CFCE010E944D01F1CFEB8DEC0FFD2FBB
:10036000F11DE35AFF4FF0829FB7F8940B8FEA8993
:10037000FB8980818062CFCFCF93DF93EC01888DA2
:100380008823B9F0AA89BB89E889F9898C9185FD10
:1003900003C0808186FD0DC00FB607FCF7CF8C919E
:1003A00085FFF2CF808185FFEDCFCE010E944D0108
:1003B000E9CFDF91CF9108958F929F92AF92BF9234
:1003C0000F931F93CF93DF93CDB7DEB7A1970FB6EF
:1003D000F894DEBF0FBECDBF19A2423008F44AE048
:1003E0008E010F5D1F4F842E912CB12CA12CA501E5
:1003F00094010E945D04E62FB901CA01EA3044F578
:10040000E05DD801EE938D01232B242B252B79F76A
:1004100090E080E0109769F0FD0101900020E9F77D
:100420003197AF014A1B5B0BBD0187E291E00E944F
:10043000CF00A1960FB6F894DEBF0FBECDBFDF91FF
:10044000CF911F910F91BF90AF909F908F90089583
:10045000E95CD7CFCF92DF92EF92FF92CF93DF93F9
:100460006B017C016DE287E291E00E946F01EC017B
:1004700066277727CB016C197D098E099F094AE011
:100480000E94DC018C0F9D1FDF91CF91FF90EF90B8
:10049000DF90CF90089542E050E063E171E087E2A1
:1004A00091E00C94CF001F920F920FB60F9211247F
:1004B0002F933F934F935F936F937F938F939F936C
:1004C000AF93BF93EF93FF9387E291E00E944D01BA
:1004D000FF91EF91BF91AF919F918F917F916F911C
:1004E0005F914F913F912F910F900FBE0F901F90F2
:1004F00018951F920F920FB60F9211242F938F937E
:100500009F93EF93FF93E0913701F0913801808141
:10051000E0913D01F0913E0182FD1BC090818091F0
:1005200040018F5F8F7320914101821741F0E0916C
:100530004001F0E0E95DFE4F958F80934001FF910F
:10054000EF919F918F912F910F900FBE0F901F9061
:1005500018958081F4CF1F920F920FB60F9211243D
:100560002F933F938F939F93AF93BF9380911B01E2
:1005700090911C01A0911D01B0911E0130911A01B2
:1005800023E0230F2D3758F50196A11DB11D2093AF
:100590001A0180931B0190931C01A0931D01B0933D
:1005A0001E018091160190911701A0911801B09140
:1005B00019010196A11DB11D809316019093170199
:1005C000A0931801B0931901BF91AF919F918F91A2
:1005D0003F912F910F900FBE0F901F90189526E816
:1005E000230F0296A11DB11DD2CF789484B58260ED
:1005F00084BD84B5816084BD85B5826085BD85B5C7
:10060000816085BD80916E00816080936E00109244
:1006100081008091810082608093810080918100BF
:100620008160809381008091800081608093800050
:100630008091B10084608093B1008091B0008160AE
:100640008093B00080917A00846080937A008091DA
:100650007A00826080937A0080917A008160809332
:100660007A0080917A00806880937A001092C100AD
:10067000EDE9F0E02491E9E8F0E08491882399F035
:1006800090E0880F991FFC01E859FF4FA591B491A4
:10069000FC01EE58FF4F859194918FB7F894EC913F
:1006A000E22BEC938FBFE0913701F091380182E0AB
:1006B0008083E0913301F09134011082E0913501A3
:1006C000F09136018FEC808310923F01E0913B0165
:1006D000F0913C0186E08083E0913901F0913A018C
:1006E000808180618083E0913901F0913A018081BD
:1006F00088608083E0913901F0913A0180818068BF
:100700008083E0913901F0913A0180818F7D80836F
:10071000C0E0D0E001E010E0FF24F3942FB7F8949C
:1007200080911B0190911C01A0911D01B0911E01AF
:100730002FBF4091230150912401609125017091B8
:1007400026015C016D01A41AB50AC60AD70AB601D2
:10075000A501483E53406105710560F08093230177
:1007600090932401A0932501B093260110932201B8
:10077000009321018091210190912201019709F0BC
:1007800047C080910001882321F160911F01709181
:100790002001072E000C880B990B97FF57C00E9471
:1007A0002A020E944B0280911F0190912001019624
:1007B0009093200180931F01109222011092210139
:1007C0008536910514F0109200018091000181118D
:1007D0001FC060911F0170912001072E000C880B33
:1007E000990B97FF37C00E942A020E944B0280910A
:1007F0001F019091200101979093200180931F0188
:100800001092220110922101892B11F4F092000123
:1008100087E291E00E942D011816190664F487E220
:1008200091E00E940B0180339105C1F0C19719F44A
:1008300081E00E948700209709F470CF0E9439015F
:10084000882309F46BCF0E94000068CF4AE00E9421
:10085000DC01A7CF4AE00E94DC01C7CF80E0E9CFEE
:10086000E7E2F1E01382128288EE93E0A0E0B0E0CC
:1008700084839583A683B78385E091E09183808309
:1008800085EC90E09587848784EC90E09787868755
:1008900080EC90E0918B808B81EC90E0938B828B4D
:1008A00082EC90E0958B848B86EC90E0978B868B26
:1008B000118E128E138E148E0895A1E21A2EAA1B89
:1008C000BB1BFD010DC0AA1FBB1FEE1FFF1FA21700
:1008D000B307E407F50720F0A21BB30BE40BF50BFD
:1008E000661F771F881F991F1A9469F76095709586
:1008F000809590959B01AC01BD01CF010895EE0F4D
:0E090000FF1F0590F491E02D0994F894FFCFAD
:10090E0001000000006F01CF00FC00BC012D010BA7
:06091E00011F010D0A009B
:00000001FF
